{
  "contractName": "Casino",
  "abi": [
    {
      "inputs": [
        {
          "name": "_minimumBet",
          "type": "uint256"
        },
        {
          "name": "_maxAmountOfBets",
          "type": "uint256"
        }
      ],
      "payable": false,
      "stateMutability": "nonpayable",
      "type": "constructor"
    },
    {
      "payable": true,
      "stateMutability": "payable",
      "type": "fallback"
    },
    {
      "constant": false,
      "inputs": [],
      "name": "kill",
      "outputs": [],
      "payable": false,
      "stateMutability": "nonpayable",
      "type": "function"
    },
    {
      "constant": false,
      "inputs": [
        {
          "name": "player",
          "type": "address"
        }
      ],
      "name": "checkPlayerExists",
      "outputs": [
        {
          "name": "",
          "type": "bool"
        }
      ],
      "payable": false,
      "stateMutability": "nonpayable",
      "type": "function"
    },
    {
      "constant": false,
      "inputs": [
        {
          "name": "number",
          "type": "uint256"
        }
      ],
      "name": "bet",
      "outputs": [],
      "payable": true,
      "stateMutability": "payable",
      "type": "function"
    },
    {
      "constant": false,
      "inputs": [],
      "name": "generateNumberWinner",
      "outputs": [],
      "payable": false,
      "stateMutability": "nonpayable",
      "type": "function"
    },
    {
      "constant": false,
      "inputs": [
        {
          "name": "numberWinner",
          "type": "uint256"
        }
      ],
      "name": "distributePrizes",
      "outputs": [],
      "payable": false,
      "stateMutability": "nonpayable",
      "type": "function"
    },
    {
      "constant": false,
      "inputs": [],
      "name": "resetData",
      "outputs": [],
      "payable": false,
      "stateMutability": "nonpayable",
      "type": "function"
    }
  ],
  "bytecode": "0x606060405267016345785d8a00006001556064600455341561002057600080fd5b6040516040806107fa83398101604052808051906020019091908051906020019091905050336000806101000a81548173ffffffffffffffffffffffffffffffffffffffff021916908373ffffffffffffffffffffffffffffffffffffffff16021790555060008214151561009757816001819055505b6000811415156100a957806004819055505b5050610740806100ba6000396000f300606060405260043610610078576000357c0100000000000000000000000000000000000000000000000000000000900463ffffffff1680630a50e3611461007a5780634081d9161461008f57806341c0e1b5146100e0578063478c4e0e146100f55780636ca3fc3b1461010a5780637365870b1461012d575b005b341561008557600080fd5b61008d610145565b005b341561009a57600080fd5b6100c6600480803573ffffffffffffffffffffffffffffffffffffffff16906020019091905050610165565b604051808215151515815260200191505060405180910390f35b34156100eb57600080fd5b6100f3610209565b005b341561010057600080fd5b61010861029a565b005b341561011557600080fd5b61012b60048080359060200190919050506102bc565b005b61014360048080359060200190919050506104ed565b005b60006001600a4381151561015557fe5b06019050610162816102bc565b50565b600080600090505b6005805490508110156101fe578273ffffffffffffffffffffffffffffffffffffffff166005828154811015156101a057fe5b906000526020600020900160009054906101000a900473ffffffffffffffffffffffffffffffffffffffff1673ffffffffffffffffffffffffffffffffffffffff1614156101f15760019150610203565b808060010191505061016d565b600091505b50919050565b6000809054906101000a900473ffffffffffffffffffffffffffffffffffffffff1673ffffffffffffffffffffffffffffffffffffffff163373ffffffffffffffffffffffffffffffffffffffff161415610298576000809054906101000a900473ffffffffffffffffffffffffffffffffffffffff1673ffffffffffffffffffffffffffffffffffffffff16ff5b565b60006005816102a99190610658565b5060006002819055506000600381905550565b6102c4610684565b6000806000806000809450600093505b600580549050841015610416576005848154811015156102f057fe5b906000526020600020900160009054906101000a900473ffffffffffffffffffffffffffffffffffffffff16925086600660008573ffffffffffffffffffffffffffffffffffffffff1673ffffffffffffffffffffffffffffffffffffffff1681526020019081526020016000206001015414156103b75782868660648110151561037757fe5b602002019073ffffffffffffffffffffffffffffffffffffffff16908173ffffffffffffffffffffffffffffffffffffffff168152505084806001019550505b600660008473ffffffffffffffffffffffffffffffffffffffff1673ffffffffffffffffffffffffffffffffffffffff1681526020019081526020016000206000808201600090556001820160009055505083806001019450506102d4565b606460025481151561042457fe5b049150600090505b848110156104dc57600073ffffffffffffffffffffffffffffffffffffffff16868260648110151561045a57fe5b602002015173ffffffffffffffffffffffffffffffffffffffff161415156104cf57858160648110151561048a57fe5b602002015173ffffffffffffffffffffffffffffffffffffffff166108fc839081150290604051600060405180830381858888f1935050505015156104ce57600080fd5b5b808060010191505061042c565b6104e461029a565b50505050505050565b600015156104fa33610165565b151514151561050557fe5b600181101580156105175750600a8111155b151561051f57fe5b600154341015151561052d57fe5b34600660003373ffffffffffffffffffffffffffffffffffffffff1673ffffffffffffffffffffffffffffffffffffffff1681526020019081526020016000206000018190555080600660003373ffffffffffffffffffffffffffffffffffffffff1673ffffffffffffffffffffffffffffffffffffffff168152602001908152602001600020600101819055506001600360008282540192505081905550600580548060010182816105e091906106c3565b9160005260206000209001600033909190916101000a81548173ffffffffffffffffffffffffffffffffffffffff021916908373ffffffffffffffffffffffffffffffffffffffff160217905550503460026000828254019250508190555060045460035410151561065557610654610145565b5b50565b81548183558181151161067f5781836000526020600020918201910161067e91906106ef565b5b505050565b610c80604051908101604052806064905b600073ffffffffffffffffffffffffffffffffffffffff168152602001906001900390816106955790505090565b8154818355818115116106ea578183600052602060002091820191016106e991906106ef565b5b505050565b61071191905b8082111561070d5760008160009055506001016106f5565b5090565b905600a165627a7a72305820cb5c88226ad530943413c211e5131f2c9a2ffd9a7ff1ad609260c1f3580705d60029",
  "source": "pragma solidity ^0.4.11; \r\n\r\ncontract Casino {\r\n    address owner;\r\n    uint minimumBet = 100 finney; \r\n    uint totalBet; \r\n    uint numberOfBets; \r\n    uint maxAmountOfBets = 100; \r\n    address[] players; \r\n\r\n    struct Player {\r\n        uint amountBet; \r\n        uint numberSelected; \r\n    }\r\n\r\n    mapping(address => Player) playerInfo; \r\n    \r\n    function Casino(uint _minimumBet, uint _maxAmountOfBets){\r\n        owner = msg.sender; \r\n        if(_minimumBet != 0) minimumBet = _minimumBet; \r\n        if(_maxAmountOfBets != 0) maxAmountOfBets = _maxAmountOfBets; \r\n    }\r\n\r\n    // Fallback function in case someone sends ether to the contract so it doesn't get lost \r\n    function() payable {}\r\n\r\n    function kill() {\r\n        if(msg.sender == owner){\r\n            selfdestruct(owner);  \r\n        }\r\n    }\r\n\r\n    function checkPlayerExists(address player) returns(bool) {\r\n        for(uint i = 0; i < players.length; i++){\r\n            if(players[i] == player) return true; \r\n        }\r\n        return false; \r\n    }\r\n\r\n    function bet(uint number) payable{\r\n        assert(checkPlayerExists(msg.sender) == false); \r\n        assert(number >= 1 && number <= 10);\r\n        assert(msg.value >= minimumBet); \r\n\r\n        playerInfo[msg.sender].amountBet = msg.value; \r\n        playerInfo[msg.sender].numberSelected = number; \r\n        numberOfBets += 1; \r\n        players.push(msg.sender);\r\n        totalBet += msg.value; \r\n\r\n        if(numberOfBets >= maxAmountOfBets) generateNumberWinner(); \r\n    }\r\n\r\n\r\n    function generateNumberWinner(){\r\n        uint numberGenerated = block.number % 10 + 1; // This isn't secure \r\n        distributePrizes(numberGenerated); \r\n    }\r\n\r\n    // Send the corresponding ether to each winner depending on the total bets \r\n\r\n    function distributePrizes(uint numberWinner){\r\n        address[100] memory winners; // We have to create a temporary in memory array with fixed size\r\n\r\n        uint count = 0; // This the count for the array of winners \r\n\r\n        for(uint i = 0; i < players.length; i++){\r\n            address playerAddress = players[i]; \r\n            if(playerInfo[playerAddress].numberSelected == numberWinner){\r\n                winners[count] = playerAddress; \r\n                count++;\r\n            }\r\n            delete playerInfo[playerAddress]; // delete all the players \r\n        }\r\n\r\n        uint winnerEtherAmount = totalBet / winners.length;  // How much each winner gets \r\n\r\n        for(uint j = 0; j < count; j++){\r\n            if(winners[j] != address(0)){ // Check that the address in this fixed array is not empty \r\n                winners[j].transfer(winnerEtherAmount); \r\n            }\r\n        }\r\n\r\n        resetData();\r\n    }\r\n\r\n    function resetData() {\r\n        players.length = 0; // Delete all the players array \r\n        totalBet = 0; \r\n        numberOfBets = 0; \r\n    }\r\n}",
  "sourcePath": "C:\\Users\\tireilly\\GitHub\\drizzle\\casino-ethereum\\contracts\\CasinoOld.sol",
  "compiler": {
    "name": "solc",
    "version": "0.4.19+commit.c4cbbb05.Emscripten.clang"
  },
  "schemaVersion": "2.0.0",
  "updatedAt": "2018-03-08T22:52:52.995Z"
}